{
  "contractName": "Token",
  "abi": [
    {
      "inputs": [
        {
          "internalType": "uint256",
          "name": "totalSupply",
          "type": "uint256"
        }
      ],
      "payable": false,
      "stateMutability": "nonpayable",
      "type": "constructor"
    },
    {
      "anonymous": false,
      "inputs": [
        {
          "indexed": true,
          "internalType": "address",
          "name": "_from",
          "type": "address"
        },
        {
          "indexed": true,
          "internalType": "address",
          "name": "_to",
          "type": "address"
        },
        {
          "indexed": false,
          "internalType": "uint256",
          "name": "_value",
          "type": "uint256"
        }
      ],
      "name": "Approval",
      "type": "event"
    },
    {
      "anonymous": false,
      "inputs": [
        {
          "indexed": true,
          "internalType": "address",
          "name": "_from",
          "type": "address"
        },
        {
          "indexed": true,
          "internalType": "address",
          "name": "_to",
          "type": "address"
        },
        {
          "indexed": false,
          "internalType": "uint256",
          "name": "_value",
          "type": "uint256"
        }
      ],
      "name": "Transfert",
      "type": "event"
    },
    {
      "constant": true,
      "inputs": [
        {
          "internalType": "address",
          "name": "",
          "type": "address"
        },
        {
          "internalType": "address",
          "name": "",
          "type": "address"
        }
      ],
      "name": "allowance",
      "outputs": [
        {
          "internalType": "uint256",
          "name": "",
          "type": "uint256"
        }
      ],
      "payable": false,
      "stateMutability": "view",
      "type": "function"
    },
    {
      "constant": true,
      "inputs": [
        {
          "internalType": "address",
          "name": "",
          "type": "address"
        }
      ],
      "name": "balanceOf",
      "outputs": [
        {
          "internalType": "uint256",
          "name": "",
          "type": "uint256"
        }
      ],
      "payable": false,
      "stateMutability": "view",
      "type": "function"
    },
    {
      "constant": false,
      "inputs": [
        {
          "internalType": "address",
          "name": "_to",
          "type": "address"
        },
        {
          "internalType": "uint256",
          "name": "_value",
          "type": "uint256"
        }
      ],
      "name": "transfer",
      "outputs": [
        {
          "internalType": "bool",
          "name": "success",
          "type": "bool"
        }
      ],
      "payable": false,
      "stateMutability": "nonpayable",
      "type": "function"
    },
    {
      "constant": false,
      "inputs": [
        {
          "internalType": "address",
          "name": "_from",
          "type": "address"
        },
        {
          "internalType": "address",
          "name": "_to",
          "type": "address"
        },
        {
          "internalType": "uint256",
          "name": "_value",
          "type": "uint256"
        },
        {
          "internalType": "bool",
          "name": "withAllowance",
          "type": "bool"
        }
      ],
      "name": "transferFrom",
      "outputs": [
        {
          "internalType": "bool",
          "name": "success",
          "type": "bool"
        }
      ],
      "payable": false,
      "stateMutability": "nonpayable",
      "type": "function"
    },
    {
      "constant": false,
      "inputs": [
        {
          "internalType": "address",
          "name": "spender",
          "type": "address"
        },
        {
          "internalType": "uint256",
          "name": "_value",
          "type": "uint256"
        }
      ],
      "name": "approve",
      "outputs": [
        {
          "internalType": "bool",
          "name": "success",
          "type": "bool"
        }
      ],
      "payable": false,
      "stateMutability": "nonpayable",
      "type": "function"
    }
  ],
  "bytecode": "0x608060405234801561001057600080fd5b506040516108023803806108028339818101604052602081101561003357600080fd5b8101908080519060200190929190505050806000803373ffffffffffffffffffffffffffffffffffffffff1673ffffffffffffffffffffffffffffffffffffffff168152602001908152602001600020819055505061076b806100976000396000f3fe608060405234801561001057600080fd5b50600436106100575760003560e01c8063095ea7b31461005c5780636f2293ab146100c257806370a0823114610154578063a9059cbb146101ac578063dd62ed3e14610212575b600080fd5b6100a86004803603604081101561007257600080fd5b81019080803573ffffffffffffffffffffffffffffffffffffffff1690602001909291908035906020019092919050505061028a565b604051808215151515815260200191505060405180910390f35b61013a600480360360808110156100d857600080fd5b81019080803573ffffffffffffffffffffffffffffffffffffffff169060200190929190803573ffffffffffffffffffffffffffffffffffffffff1690602001909291908035906020019092919080351515906020019092919050505061037c565b604051808215151515815260200191505060405180910390f35b6101966004803603602081101561016a57600080fd5b81019080803573ffffffffffffffffffffffffffffffffffffffff1690602001909291905050506105ec565b6040518082815260200191505060405180910390f35b6101f8600480360360408110156101c257600080fd5b81019080803573ffffffffffffffffffffffffffffffffffffffff16906020019092919080359060200190929190505050610604565b604051808215151515815260200191505060405180910390f35b6102746004803603604081101561022857600080fd5b81019080803573ffffffffffffffffffffffffffffffffffffffff169060200190929190803573ffffffffffffffffffffffffffffffffffffffff169060200190929190505050610711565b6040518082815260200191505060405180910390f35b600081600160003373ffffffffffffffffffffffffffffffffffffffff1673ffffffffffffffffffffffffffffffffffffffff16815260200190815260200160002060008573ffffffffffffffffffffffffffffffffffffffff1673ffffffffffffffffffffffffffffffffffffffff168152602001908152602001600020819055508273ffffffffffffffffffffffffffffffffffffffff163373ffffffffffffffffffffffffffffffffffffffff167f8c5be1e5ebec7d5bd14f71427d1e84f3dd0314c0f7b2291e5b200ac8c7c3b925846040518082815260200191505060405180910390a36001905092915050565b6000826000808773ffffffffffffffffffffffffffffffffffffffff1673ffffffffffffffffffffffffffffffffffffffff1681526020019081526020016000205410156103c957600080fd5b81156104e35782600160008773ffffffffffffffffffffffffffffffffffffffff1673ffffffffffffffffffffffffffffffffffffffff16815260200190815260200160002060003373ffffffffffffffffffffffffffffffffffffffff1673ffffffffffffffffffffffffffffffffffffffff16815260200190815260200160002054101561045857600080fd5b82600160008773ffffffffffffffffffffffffffffffffffffffff1673ffffffffffffffffffffffffffffffffffffffff16815260200190815260200160002060003373ffffffffffffffffffffffffffffffffffffffff1673ffffffffffffffffffffffffffffffffffffffff168152602001908152602001600020600082825403925050819055505b826000808773ffffffffffffffffffffffffffffffffffffffff1673ffffffffffffffffffffffffffffffffffffffff16815260200190815260200160002060008282540392505081905550826000808673ffffffffffffffffffffffffffffffffffffffff1673ffffffffffffffffffffffffffffffffffffffff168152602001908152602001600020600082825401925050819055508373ffffffffffffffffffffffffffffffffffffffff168573ffffffffffffffffffffffffffffffffffffffff167faf9ff3ada675379ca19fdd908e550417162f2a7370166e8257b25888e55926e7856040518082815260200191505060405180910390a360019050949350505050565b60006020528060005260406000206000915090505481565b60003073ffffffffffffffffffffffffffffffffffffffff16636f2293ab33858560006040518563ffffffff1660e01b8152600401808573ffffffffffffffffffffffffffffffffffffffff1673ffffffffffffffffffffffffffffffffffffffff1681526020018473ffffffffffffffffffffffffffffffffffffffff1673ffffffffffffffffffffffffffffffffffffffff16815260200183815260200182151515158152602001945050505050602060405180830381600087803b1580156106ce57600080fd5b505af11580156106e2573d6000803e3d6000fd5b505050506040513d60208110156106f857600080fd5b8101908080519060200190929190505050905092915050565b600160205281600052604060002060205280600052604060002060009150915050548156fea265627a7a723158201e787780aee7ba431ad486c61f49f7cfbf8fd5eddfcddb4683aae2ae652e5b0864736f6c63430005110032",
  "source": "// SPDX-License-Identifier: MIT\r\npragma solidity >=0.5.1 <0.9.0;\r\n\r\ncontract Token {\r\n    mapping(address => uint256) public balanceOf;\r\n    mapping(address => mapping(address => uint256)) public allowance;\r\n\r\n    event Transfert( address indexed _from, address indexed _to, uint _value );\r\n    event Approval( address indexed _from, address indexed _to, uint _value );\r\n\r\n    constructor(uint256 totalSupply) public {\r\n      balanceOf[msg.sender] = totalSupply;\r\n    }\r\n\r\n    function transfer(address _to, uint _value) public returns (bool success){\r\n        return this.transferFrom(msg.sender, _to, _value, false);\r\n    }\r\n\r\n    function transferFrom(address _from, address _to, uint _value, bool withAllowance) public returns (bool success){\r\n        // Control\r\n        require(balanceOf[_from] >= _value);\r\n\r\n        if(withAllowance){\r\n            require(allowance[_from][msg.sender] >= _value);\r\n            allowance[_from][msg.sender] -= _value;\r\n        }\r\n        \r\n        // Transfer Balance\r\n        balanceOf[_from] -= _value;\r\n        balanceOf[_to] += _value;\r\n        \r\n        // Event\r\n        emit Transfert(_from, _to, _value);\r\n        \r\n        return true;\r\n    }\r\n\r\n    function approve(address spender, uint256 _value) public returns (bool success) {\r\n        allowance[msg.sender][spender] = _value;\r\n        emit Approval(msg.sender, spender, _value);\r\n        return true;\r\n    }\r\n}",
  "sourcePath": "D:\\www\\trading\\course\\defi-staking-app-starter\\defi-staking-app-starter\\src\\contracts\\Token.sol",
  "compiler": {
    "name": "solc",
    "version": "0.5.17+commit.d19bba13.Emscripten.clang"
  },
  "schemaVersion": "3.4.3",
  "updatedAt": "2021-10-07T11:21:08.213Z",
  "devdoc": {
    "methods": {}
  },
  "userdoc": {
    "methods": {}
  }
}